:100000000C945C000C946E000C946E000C946E00CA
:100010000C946E000C946E000C946E000C946E00A8
:100020000C946E000C946E000C946E000C946E0098
:100030000C946E000C946E000C946E000C946E0088
:100040000C9487010C946E000C946E000C946E005E
:100050000C946E000C946E000C946E000C946E0068
:100060000C946E000C946E00000000080002010069
:100070000003040700000000000000000000000072
:10008000250028002B0000000000240027002A0083
:10009000040404040404040402020202020203032E
:1000A0000303030301020408102040800102040836
:1000B000102001020408102011241FBECFEFD8E049
:1000C000DEBFCDBF21E0A0E0B1E001C01D92AB30AA
:1000D000B207E1F70E94D1010C94BA020C9400001F
:1000E00090E0FC01EC55FF4F2491FC01E057FF4FDD
:1000F0008491882399F090E0880F991FFC01EA57BA
:10010000FF4FA591B491FC01E458FF4F8591949164
:100110008FB7F894EC91E22BEC938FBF089590E0A9
:10012000FC01E859FF4F3491FC01EC55FF4F24913D
:10013000FC01E057FF4FE491EE2309F43BC0332369
:1001400039F1333091F038F43130A9F0323001F523
:1001500084B58F7D12C0373091F03830A1F0343043
:10016000B9F4809180008F7D03C0809180008F77EB
:10017000809380000DC084B58F7784BD09C08091C5
:10018000B0008F7703C08091B0008F7D8093B00066
:10019000F0E0EE0FFF1FE458FF4FA591B4918FB729
:1001A000F894EC91611103C020952E2301C02E2BF1
:1001B0002C938FBF08953FB7F894809105019091DB
:1001C0000601A0910701B091080126B5A89B05C0C2
:1001D0002F3F19F00196A11DB11D3FBFBA2FA92FC6
:1001E000982F8827820F911DA11DB11DBC01CD0143
:1001F00042E0660F771F881F991F4A95D1F708952F
:100200008F929F92AF92BF92CF92DF92EF92FF9226
:100210000E94DB004B015C0186E9C82ED12CE12C49
:10022000F12C0E94DB00DC01CB0188199909AA0995
:10023000BB09883E9340A105B10558F021E0C21AE0
:10024000D108E108F10888EE880E83E0981EA11C11
:10025000B11CC114D104E104F10419F7FF90EF902F
:10026000DF90CF90BF90AF909F908F900895EF92C6
:10027000FF920F931F93CF93DF93082F162F60E009
:1002800088E00E948F00E0900901C0E0D0E0F12CEE
:10029000B7010C2E02C0759567950A94E2F761705C
:1002A0007727802F0E948F0061E0812F0E948F00AE
:1002B00060E0812F0E948F002196C830D10541F760
:1002C000E0900A01C0E0D0E0F12CB7010C2E02C092
:1002D000759567950A94E2F761707727802F0E94E1
:1002E0008F0061E0812F0E948F0060E0812F0E94CB
:1002F0008F002196C830D10541F761E088E0DF9199
:10030000CF911F910F91FF90EF900C948F001F924F
:100310000F920FB60F9211242F933F938F939F93B9
:10032000AF93BF938091010190910201A0910301CD
:10033000B09104013091000123E0230F2D3720F408
:100340000196A11DB11D05C026E8230F0296A11D2F
:10035000B11D209300018093010190930201A093AD
:100360000301B09304018091050190910601A091D1
:100370000701B09108010196A11DB11D80930501EF
:1003800090930601A0930701B0930801BF91AF912C
:100390009F918F913F912F910F900FBE0F901F90C3
:1003A0001895789484B5826084BD84B5816084BDDD
:1003B00085B5826085BD85B5816085BD80916E0003
:1003C000816080936E001092810080918100826034
:1003D0008093810080918100816080938100809171
:1003E00080008160809380008091B1008460809360
:1003F000B1008091B00081608093B00080917A005C
:10040000846080937A0080917A00826080937A0081
:1004100080917A00816080937A0080917A00806870
:1004200080937A001092C10088E00E9470008CE0F6
:100430000E9470008BE00E94700001E010E020E05C
:10044000E22E20E0F22E1092090110920A01C9E07A
:10045000D1E06E01A12CB12CC8010A2C01C0880F7B
:100460000A94EAF7F6019081892B80836CE070E0B2
:100470008BE090E00E9437010E940001FFEFAF1A6D
:10048000BF0A88E0A816B10439F7EFEFCE1ADE0AEA
:10049000FBE0CF16F1E0DF06E9F6C12CD12CC80154
:1004A0000C2C01C0880F0A94EAF780959881892363
:1004B00088836CE070E08BE090E00E9437010E943E
:1004C00000018FEFC81AD80AE8E0CE16D10439F738
:1004D0002196F1E0CB30DF0701F71092090110926D
:1004E0000A01CAE0D1E06E0198E0A92EB12CC80142
:1004F0000A2C01C0880F0A94EAF7F6019081892B33
:1005000080836CE070E08BE090E00E9437010E94F5
:100510000001F1E0AF1AB10850F7E1E0CE1AD108BE
:10052000F8E0CF16F1E0DF06F9F688E0C82ED12C0E
:10053000C8010C2C01C0880F0A94EAF780959881B5
:10054000892388836CE070E08BE090E00E943701A3
:100550000E94000181E0C81AD10850F72197F1E00C
:10056000C830DF0711F7E114F10409F46CCF0E94E1
:08057000000065CFF894FFCFF5
:00000001FF
